:100000000C942A000C944F060C947C060C94A906C0
:100010000C9447000C9447000C94E3120C94891242
:100020000C94B6120C945C120C9447000C9447008C
:100030000C9447000C9447000C9447000C94470024
:100040000C9447000C9447000C9447000C94470014
:100050000C94470011241FBECFE5D8E0DEBFCDBF12
:1000600010E0A8E6B0E001C01D92AA38B107E1F7A0
:1000700010E0A0E6B0E0E8E9F9E202C005900D92D8
:10008000A836B107D9F70E94290B0C94CA140C9416
:100090000000EF92FF920F931F937B018C0120E0F1
:1000A00030E040E05FE40E94F50388238CF0C80153
:1000B000B70120E030E040E05FE40E94C1010E940F
:1000C00055049B01AC01205030404040504806C0D0
:1000D000C801B7010E9455049B01AC01B901CA01D6
:1000E0001F910F91FF90EF900895A0E0B0E0EBE733
:1000F000F0E00C949314DC012B01FA019C919230F6
:1001000008F439C1EB018881823008F433C194309E
:1001100069F4843009F02FC111969C91119789815F
:10012000981709F428C1A0E6B0E025C1843009F48D
:1001300021C18230A9F4923009F01DC19A01AD01AC
:1001400088E0EA010990AE01E90109929E0181501F
:10015000C1F7E201898111969C918923818308C1AD
:10016000923009F407C112962D903C901397EB0141
:100170008A819B811496AD90BD90CD90DC901797AD
:10018000EC80FD800E811F819101281B390BB90184
:1001900037FF04C066277727621B730B6032710537
:1001A0000CF061C0121613066CF537014801062EDB
:1001B00004C096948794779467940A94D2F721E0C8
:1001C00030E040E050E004C0220F331F441F551FB1
:1001D0006A95D2F721503040404050402E213F21B7
:1001E00040235123211531054105510521F021E01E
:1001F00030E040E050E079018A01E628F72808293C
:1002000019293CC0232BD1F1260E371E350146019A
:10021000062E04C096948794779467940A94D2F734
:1002200021E030E040E050E004C0220F331F441FC3
:10023000551F6A95D2F721503040404050402A2146
:100240003B214C215D21211531054105510521F04E
:1002500021E030E040E050E059016A01A628B728CB
:10026000C828D9280BC0821593052CF01C01AA249C
:10027000BB24650103C0EE24FF24870111969C91E5
:10028000D20111968C91981709F445C0992339F041
:10029000A80197012A193B094C095D0906C0A6016E
:1002A00095012E193F09400B510B57FD08C01182D3
:1002B0003382228224833583468357831DC081E0A5
:1002C00081833382228288279927DC01821B930B4A
:1002D000A40BB50B84839583A683B7830DC0220F2F
:1002E000331F441F551F24833583468357838281E0
:1002F000938101979383828324813581468157813D
:10030000DA01C9010197A109B1098F5F9F4FAF4F72
:10031000BF4328F30BC0918333822282EA0CFB1C7B
:100320000C1D1D1DE482F5820683178383E0808304
:10033000248135814681578157FF1AC0C901AA27F8
:1003400097FDA095BA2F81709070A070B0705695EF
:10035000479537952795822B932BA42BB52B848318
:100360009583A683B7838281938101969383828349
:10037000DF0101C0D201CD01CDB7DEB7E2E10C94BF
:10038000AF14A0E2B0E0E7ECF1E00C949F146983B5
:100390007A838B839C832D833E834F835887E9E048
:1003A000EE2EF12CEC0EFD1ECE010196B7010E943F
:1003B0007E058E010F5E1F4FCE010596B8010E948B
:1003C0007E058A8991E089278A8BC701B801AE0131
:1003D000475E5F4F0E9475000E94A904A096E6E068
:1003E0000C94BB14A0E2B0E0E8EFF1E00C949F1491
:1003F00069837A838B839C832D833E834F835887C5
:10040000F9E0EF2EF12CEC0EFD1ECE010196B701A6
:100410000E947E058E010F5E1F4FCE010596B8012A
:100420000E947E05C701B801AE01475E5F4F0E9482
:1004300075000E94A904A096E6E00C94BB14A0E20B
:10044000B0E0E5E2F2E00C94931469837A838B8345
:100450009C832D833E834F835887CE010196BE0136
:10046000675F7F4F0E947E05CE010596BE016F5EDD
:100470007F4F0E947E059985923088F0898982306D
:10048000C8F0943019F4823051F404C0843029F457
:10049000923081F480E690E0C6C0923049F420E0CA
:1004A0009A858A89981321E02A87CE010996BBC0D4
:1004B000823049F420E09A858A89981321E02A8BBA
:1004C000CE014196B0C02D843E844F8458886D88FB
:1004D0007E888F88988CEE24FF248701AA24BB2471
:1004E000650140E050E060E070E0E0E0F0E0C10174
:1004F00081709070892BE9F0E60CF71C081D191D1E
:100500009A01AB012A0D3B1D4C1D5D1D80E090E062
:10051000A0E0B0E0E614F7040805190520F481E036
:1005200090E0A0E0B0E0BA01A901480F591F6A1F8E
:100530007B1FAA0CBB1CCC1CDD1C97FE08C081E0F5
:1005400090E0A0E0B0E0A82AB92ACA2ADB2A3196B6
:10055000E032F10549F0660C771C881C991C569412
:10056000479437942794C3CFFA85EA892B893C892D
:100570008B859C85280F391F2E5F3F4F17C0CA01FE
:1005800081709070892B61F016950795F794E79428
:1005900080E090E0A0E0B0E8E82AF92A0A2B1B2BC3
:1005A00076956795579547952F5F3F4F77FDE7CF36
:1005B0000CC0440F551F661F771F17FD4160EE0CDE
:1005C000FF1C001F111F21503040403090E05907A0
:1005D00090E0690790E4790760F32B8F3C8FDB0193
:1005E000CA018F779070A070B07080349105A1051A
:1005F000B10561F447FD0AC0E114F10401051105DC
:1006000029F0405C5F4F6F4F7F4F40781A8EFE1786
:1006100011F081E08A8F4D8F5E8F6F8F78A383E01A
:10062000898FCE0149960E94A904A096E2E10C941C
:10063000AF14A8E1B0E0EFE1F3E00C949B14698300
:100640007A838B839C832D833E834F835887B9E0C5
:10065000EB2EF12CEC0EFD1ECE010196B7010E948F
:100660007E058E010F5E1F4FCE010596B8010E94D8
:100670007E052985223008F47EC03989323010F495
:10068000B8017CC08A859A8989278A87243011F02D
:10069000223031F4231709F06EC060E670E06EC0BE
:1006A000343039F41D861E861F86188A1C861B86E8
:1006B00004C0323021F484E08987B7015FC02B8504
:1006C0003C858B899C89281B390B3C872B87ED84C3
:1006D000FE840F851889AD88BE88CF88D88CEA142F
:1006E000FB040C051D0540F4EE0CFF1C001F111F40
:1006F000215030403C872B8720E030E040E050E044
:1007000080E090E0A0E0B0E460E070E0EA14FB0478
:100710000C051D0540F0282B392B4A2B5B2BEA18C2
:10072000FB080C091D09B695A79597958795EE0CC2
:10073000FF1C001F111F6F5F7F4F6F31710531F775
:10074000DA01C9018F779070A070B0708034910584
:10075000A105B10561F427FD0AC0E114F10401050A
:10076000110529F0205C3F4F4F4F5F4F20782D87B8
:100770003E874F87588BBE01675F7F4FCB010E943A
:10078000A9046896EAE00C94B714A8E1B0E0EBEC99
:10079000F3E00C949F1469837A838B839C832D836D
:1007A0003E834F83588789E0E82EF12CEC0EFD1E26
:1007B000CE010196B7010E947E058E010F5E1F4F8C
:1007C000CE010596B8010E947E058985823040F0F1
:1007D0008989823028F0C701B8010E94F60501C05E
:1007E0008FEF6896E6E00C94BB14A8E1B0E0EBEF65
:1007F000F3E00C949F1469837A838B839C832D830D
:100800003E834F83588789E0E82EF12CEC0EFD1EC5
:10081000CE010196B7010E947E058E010F5E1F4F2B
:10082000CE010596B8010E947E058985823040F090
:100830008989823028F0C701B8010E94F60501C0FD
:100840008FEF6896E6E00C94BB14A8E1B0E0EBE211
:10085000F4E00C949F1469837A838B839C832D83AB
:100860003E834F83588789E0E82EF12CEC0EFD1E65
:10087000CE010196B7010E947E058E010F5E1F4FCB
:10088000CE010596B8010E947E058985823040F030
:100890008989823028F0C701B8010E94F60501C09D
:1008A00081E06896E6E00C94BB14ACE0B0E0EBE5C8
:1008B000F4E00C94A31469837A838B839C83CE0128
:1008C0000196BE016B5F7F4F0E947E058D81823055
:1008D00061F1823050F1843021F48E81882351F10E
:1008E0002EC02F81388537FD20C06E812F31310514
:1008F0001CF06623F9F023C08EE190E0821B930B7D
:1009000029853A854B855C8504C056954795379572
:1009100027958A95D2F76623B1F05095409530958A
:1009200021953F4F4F4F5F4F0EC020E030E040E039
:1009300050E009C02FEF3FEF4FEF5FE704C020E02A
:1009400030E040E050E8B901CA012C96E2E00C9496
:10095000BF14DF92EF92FF920F931F93FC01E4808C
:10096000F58006811781D1808081823048F480E053
:1009700090E0A0E1B0E0E82AF92A0A2B1B2BA5C0E1
:10098000843009F49FC0823021F4EE24FF248701D3
:1009900005C0E114F1040105110519F4E0E0F0E0EF
:1009A00096C0628173819FEF623879070CF05BC05B
:1009B00022E83FEF261B370B2A3131052CF020E0CF
:1009C00030E040E050E02AC0B801A701022E04C088
:1009D00076956795579547950A94D2F781E090E010
:1009E000A0E0B0E004C0880F991FAA1FBB1F2A9582
:1009F000D2F70197A109B1098E219F21A023B1232C
:100A00000097A105B10521F081E090E0A0E0B0E001
:100A10009A01AB01282B392B4A2B5B2BDA01C90138
:100A20008F779070A070B07080349105A105B105EA
:100A300039F427FF09C0205C3F4F4F4F5F4F04C080
:100A4000215C3F4F4F4F5F4FE0E0F0E02030A0E0EF
:100A50003A07A0E04A07A0E45A0710F0E1E0F0E00E
:100A600079018A0127C06038710564F5FB01E158FE
:100A7000FF4FD801C7018F779070A070B07080349D
:100A80009105A105B10539F4E7FE0DC080E490E0C1
:100A9000A0E0B0E004C08FE390E0A0E0B0E0E80E9A
:100AA000F91E0A1F1B1F17FF05C016950795F7941F
:100AB000E794319687E016950795F794E7948A9521
:100AC000D1F705C0EE24FF248701EFEFF0E06E2F91
:100AD000679566276795902F9F77D794DD24D794E5
:100AE0008E2F8695492F462B582F5D29B701CA01B5
:100AF0001F910F91FF90EF90DF900895FC01DB01B3
:100B0000408151812281622F6F7770E0221F22275E
:100B1000221F9381892F880F822B282F30E0991F65
:100B20009927991F11969C93119721153105A9F5C5
:100B3000411551056105710511F482E037C082E865
:100B40009FEF13969C938E9312979A01AB0167E0E7
:100B5000220F331F441F551F6A95D1F783E08C93F2
:100B60000DC0220F331F441F551F12968D919C916B
:100B70001397019713969C938E931297203080E0E1
:100B8000380780E0480780E4580758F314962D93FF
:100B90003D934D935C93179708952F3F310579F45A
:100BA000411551056105710519F484E08C93089590
:100BB00064FF03C081E08C9312C01C9210C02F57B9
:100BC000304013963C932E93129783E08C9387E0EA
:100BD000440F551F661F771F8A95D1F770641496CE
:100BE0004D935D936D937C93179708951F93DC014C
:100BF000FB019C91923008F447C08081823008F458
:100C000043C0943051F411961C91843099F5818140
:100C1000682F70E0611B71093FC0843021F0923071
:100C200031F48230B9F18181882389F12DC0119688
:100C30001C9111978230F1F081811817D9F4129626
:100C40002D913C911397828193818217930794F0A1
:100C500028173907BCF014968D919D910D90BC9189
:100C6000A02D2481358146815781281739074A07ED
:100C70005B0718F4112341F00AC082179307A407F9
:100C8000B50740F4112319F061E070E005C06FEF83
:100C90007FEF02C060E070E0CB011F9108951F92CA
:100CA0000F920FB60F9211242F933F934F935F93A0
:100CB0006F937F938F939F93AF93BF93EF93FF9324
:100CC000DF93CF93CDB7DEB7E0916800F091690074
:100CD0000995CF91DF91FF91EF91BF91AF919F91D6
:100CE0008F917F916F915F914F913F912F910F90D5
:100CF0000FBE0F901F9018951F920F920FB60F9274
:100D000011242F933F934F935F936F937F938F9310
:100D10009F93AF93BF93EF93FF93DF93CF93CDB7A1
:100D2000DEB7E0916A00F0916B000995CF91DF91F9
:100D3000FF91EF91BF91AF919F918F917F916F91B3
:100D40005F914F913F912F910F900FBE0F901F9089
:100D500018951F920F920FB60F9211242F933F9365
:100D60004F935F936F937F938F939F93AF93BF93B3
:100D7000EF93FF93DF93CF93CDB7DEB7E0916C0095
:100D8000F0916D000995CF91DF91FF91EF91BF91A7
:100D9000AF919F918F917F916F915F914F913F9113
:100DA0002F910F900FBE0F901F901895DF93CF9348
:100DB0000F92CDB7DEB7898383E062E040E00E9406
:100DC00095078981882341F4A5E5B0E0E5E5F0E0E9
:100DD000808182608C9311C08981813071F4A5E596
:100DE000B0E0E5E5F0E0808181608C93A5E5B0E0BE
:100DF000E5E5F0E0808182608C93ABE5B0E0EBE567
:100E0000F0E0808180648C93AFE5B0E0EFE5F0E046
:100E1000808180688C930F90CF91DF910895DF934C
:100E2000CF930F92CDB7DEB7898383E063E040E0D4
:100E30000E9495078981882341F4A5E5B0E0E5E5A6
:100E4000F0E0808188608C9311C08981813071F4D9
:100E5000A5E5B0E0E5E5F0E0808184608C93A5E550
:100E6000B0E0E5E5F0E0808188608C93ABE5B0E030
:100E7000EBE5F0E0808180688C93AFE5B0E0EFE5D2
:100E8000F0E0808180688C930F90CF91DF9108957E
:100E9000DF93CF930F92CDB7DEB7898381E062E015
:100EA00040E00E9495078981882341F4A4E5B0E0E1
:100EB000E4E5F0E080818F7B8C930AC089818130EA
:100EC00039F4A4E5B0E0E4E5F0E0808180648C933F
:100ED000ABE5B0E0EBE5F0E0808180628C93AFE5BC
:100EE000B0E0EFE5F0E0808180688C930F90CF91C7
:100EF000DF910895DF93CF9300D00F92CDB7DEB787
:100F00009A8389836B838B81882F90E029813A8132
:100F1000880F991FFC01E859FF4F318320830F9000
:100F20000F900F90CF91DF910895DF93CF9300D072
:100F300000D00F92CDB7DEB789836A834B83898156
:100F4000843008F0D5C08A81883008F0D1C089810A
:100F5000282F30E03D832C838C819D818130910549
:100F600009F443C02C813D81223031052CF48C8161
:100F70009D81009771F0BCC02C813D8122303105EC
:100F800009F45FC08C819D818330910509F485C08F
:100F9000AFC08B818130A1F4AAE3B0E0EAE3F0E0D6
:100FA0008081482F8A81282F30E081E090E0022E56
:100FB00002C0880F991F0A94E2F7842B8C9398C083
:100FC000AAE3B0E0EAE3F0E08081482F8A81282F8D
:100FD00030E081E090E0022E02C0880F991F0A9451
:100FE000E2F7809584238C9383C08B818130A1F4B8
:100FF000A7E3B0E0E7E3F0E08081482F8A81282F63
:1010000030E081E090E0022E02C0880F991F0A9420
:10101000E2F7842B8C936CC0A7E3B0E0E7E3F0E049
:101020008081482F8A81282F30E081E090E0022ED5
:1010300002C0880F991F0A94E2F7809584238C934D
:1010400057C08B818130A1F4A4E3B0E0E4E3F0E089
:101050008081482F8A81282F30E081E090E0022EA5
:1010600002C0880F991F0A94E2F7842B8C9340C02A
:10107000A4E3B0E0E4E3F0E08081482F8A81282FE8
:1010800030E081E090E0022E02C0880F991F0A94A0
:10109000E2F7809584238C932BC08B818130A1F45F
:1010A000A1E3B0E0E1E3F0E08081482F8A81282FBE
:1010B00030E081E090E0022E02C0880F991F0A9470
:1010C000E2F7842B8C9314C0A1E3B0E0E1E3F0E0FD
:1010D0008081482F8A81282F30E081E090E0022E25
:1010E00002C0880F991F0A94E2F7809584238C939D
:1010F0000F900F900F900F900F90CF91DF91089568
:10110000DF93CF9300D000D0CDB7DEB789836A8359
:101110008981843090F58981282F30E03C832B83AE
:101120008B819C8181309105D1F02B813C812230D3
:1011300031052CF48B819C81009761F01EC02B81BE
:101140003C812230310581F08B819C818330910577
:1011500081F013C0EAE3F0E08A8180830EC0E7E308
:10116000F0E08A81808309C0EAE3F0E08A8180832D
:1011700004C0E1E3F0E08A8180830F900F900F902C
:101180000F90CF91DF910895DF93CF9300D000D0DF
:101190000F92CDB7DEB789836A834B838981843010
:1011A00008F0D5C08A81883008F0D1C08981282F05
:1011B00030E03D832C838C819D818130910509F441
:1011C00043C02C813D81223031052CF48C819D81DE
:1011D000009771F0BCC02C813D812230310509F4AB
:1011E0005FC08C819D818330910509F485C0AFC0BB
:1011F0008B818130A1F4ABE3B0E0EBE3F0E08081E0
:10120000482F8A81282F30E081E090E0022E02C032
:10121000880F991F0A94E2F7842B8C9398C0ABE354
:10122000B0E0EBE3F0E08081482F8A81282F30E0A6
:1012300081E090E0022E02C0880F991F0A94E2F725
:10124000809584238C9383C08B818130A1F4A8E3A3
:10125000B0E0E8E3F0E08081482F8A81282F30E079
:1012600081E090E0022E02C0880F991F0A94E2F7F5
:10127000842B8C936CC0A8E3B0E0E8E3F0E08081BD
:10128000482F8A81282F30E081E090E0022E02C0B2
:10129000880F991F0A94E2F7809584238C9357C096
:1012A0008B818130A1F4A5E3B0E0E5E3F0E080813B
:1012B000482F8A81282F30E081E090E0022E02C082
:1012C000880F991F0A94E2F7842B8C9340C0A5E302
:1012D000B0E0E5E3F0E08081482F8A81282F30E0FC
:1012E00081E090E0022E02C0880F991F0A94E2F775
:1012F000809584238C932BC08B818130A1F4A2E351
:10130000B0E0E2E3F0E08081482F8A81282F30E0CE
:1013100081E090E0022E02C0880F991F0A94E2F744
:10132000842B8C9314C0A2E3B0E0E2E3F0E0808170
:10133000482F8A81282F30E081E090E0022E02C001
:10134000880F991F0A94E2F7809584238C930F905D
:101350000F900F900F900F90CF91DF910895DF9332
:10136000CF9300D000D0CDB7DEB789836A8389815F
:10137000843090F58981282F30E03C832B838B814A
:101380009C8181309105D1F02B813C812230310547
:101390002CF48B819C81009761F01EC02B813C81D5
:1013A0002230310581F08B819C818330910581F061
:1013B00013C0EBE3F0E08A8180830EC0E8E3F0E045
:1013C0008A81808309C0E5E3F0E08A81808304C0DC
:1013D000E2E3F0E08A8180830F900F900F900F90EE
:1013E000CF91DF910895DF93CF9300D000D00F927B
:1013F000CDB7DEB78A836B8319828A81843008F087
:1014000084C08B81883008F080C08A81282F30E02A
:101410003D832C834C815D814130510579F18C8174
:101420009D818230910534F42C813D812115310557
:1014300069F06BC04C815D8142305105B9F18C81FE
:101440009D818330910509F449C05FC0E9E3F0E074
:101450008081282F30E08B81882F90E0A90102C085
:10146000559547958A95E2F7CA0181709070882357
:1014700019F081E0898349C0198247C0E6E3F0E0B2
:101480008081282F30E08B81882F90E0A90102C055
:10149000559547958A95E2F7CA0181709070882327
:1014A00019F081E0898331C019822FC0E3E3F0E0B5
:1014B0008081282F30E08B81882F90E0A90102C025
:1014C000559547958A95E2F7CA01817090708823F7
:1014D00019F081E0898319C0198217C0E0E3F0E0B8
:1014E0008081282F30E08B81882F90E0A90102C0F5
:1014F000559547958A95E2F7CA01817090708823C7
:1015000019F081E0898301C0198289810F900F90C1
:101510000F900F900F90CF91DF910895DF93CF93AD
:1015200000D000D0CDB7DEB78A8319828A8184309B
:1015300090F58A81282F30E03C832B838B819C811E
:1015400081309105D1F02B813C81223031052CF482
:101550008B819C81009761F01EC02B813C812230E1
:10156000310581F08B819C818330910581F013C01E
:10157000E9E3F0E0808189830EC0E6E3F0E080815A
:10158000898309C0E3E3F0E08081898304C0E0E35C
:10159000F0E08081898389810F900F900F900F90E8
:1015A000CF91DF910895DF93CF93CDB7DEB78091D0
:1015B00087008F5F80938700809187008C33E1F4F0
:1015C00010928700809188008F5F809388008091BF
:1015D00088008C3389F410928800809189008F5F95
:1015E0008093890080918900883131F410928700BE
:1015F0001092880010928900CF91DF910895DF93B7
:10160000CF93CDB7DEB7AEE4B0E0EEE4F0E080819A
:10161000887F8C93CF91DF910895DF93CF93CDB7DF
:10162000DEB7AEE4B0E0EEE4F0E08081887F856074
:101630008C93CF91DF910895DF93CF93CDB7DEB731
:10164000109287001092880010928900CF91DF914C
:101650000895DF93CF93CDB7DEB70E946C0B80E087
:101660000E94D60681E00E940F0780E00E94480792
:1016700083ED9AE061E00E946C148CE19BE060E0F5
:101680000E947A078FEF9AE061E00E947A078DE06E
:101690009BE062E00E947A07A8E3B0E0E8E3F0E0B4
:1016A000808184608C93A2E3B0E0E2E3F0E080818B
:1016B00084608C9381ED93E060E045E021E00E943E
:1016C0004D13809187009091880020918900692FA7
:1016D000422F0E94AC0BF5CFDF93CF93CDB7DEB78F
:1016E00082E060E041E00E94950782E061E041E035
:1016F0000E94950782E062E041E00E94950782E047
:1017000063E041E00E94950780E060E041E00E94D4
:10171000950780E061E041E00E94950780E062E08B
:1017200041E00E94950780E063E041E00E94950758
:1017300080E064E041E00E94950780E065E041E0E0
:101740000E949507A5E3B0E0E5E3F0E08081807FAB
:101750008C93CF91DF9108950F931F93DF93CF93D5
:10176000CDB7DEB7C459D0400FB6F894DEBF0FBE78
:10177000CDBFFE01EE56FF4F8083FE01ED56FF4FB9
:101780006083FE01EC56FF4F4083DE01AF56BF4F32
:10179000FE01EE56FF4F80819AE0692F0E94871468
:1017A000892F8C93EBE3F0E081E08083A5E3B0E048
:1017B000E5E3F0E08081982F907FFE01EF56FF4F28
:1017C00080818F70892B8C93FE01E357FF4F80E05F
:1017D00090E0A0E2B1E480839183A283B3838E0181
:1017E00007571F4FFE01E357FF4F608171818281D0
:1017F00093812BEA3AEA4AEA5EE30E941F02DC0187
:10180000CB01F80180839183A283B383FE01E75764
:10181000FF4F608171818281938120E030E040E858
:101820005FE30E942504882334F4FE01E857FF4F4C
:1018300081E08083E0C0FE01E757FF4F6081718146
:101840008281938120E030E04FE753E40E94C5039A
:1018500018160CF0C0C0FE01E357FF4F6081718184
:101860008281938120E030E04AE754E40E9419032A
:10187000DC01CB01FE01EC57FF4F80839183A283F3
:10188000B3838E0100581F4FFE01EC57FF4F60815C
:1018900071818281938120E030E04AE753E40E9425
:1018A0001F02DC01CB01F80180839183A283B38303
:1018B000FE01E058FF4F608171818281938120E0B9
:1018C00030E040E85FE30E942504882344F4FE01F1
:1018D000E258FF4F81E090E09183808364C0FE0175
:1018E000E058FF4F608171818281938120E03FEF5A
:1018F0004FE757E40E94C50318160CF043C0FE01E1
:10190000EC57FF4F608171818281938120E030E04C
:1019100040E251E40E941F02DC01CB018E0102581B
:101920001F4FBC01CD010E944900DC01CB01F80131
:10193000918380831FC0FE01E458FF4F89E190E04E
:1019400091838083FE01E458FF4F8081918101974C
:10195000F1F7FE01E458FF4F91838083DE01A25826
:10196000BF4FFE01E258FF4F808191810197119690
:101970009C938E93FE01E258FF4F808191810097E6
:10198000D1F64BC08E0102581F4FFE01E058FF4FA9
:1019900060817181828193810E944900DC01CB01C9
:1019A000F80191838083DE01A658BF4FFE01E25803
:1019B000FF4F8081918111969C938E93FE01E65892
:1019C000FF4F808191810197F1F7FE01E658FF4FAB
:1019D0009183808322C08E0108571F4FFE01E75775
:1019E000FF4F60817181828193810E944900DC01F7
:1019F000CB01F8018083DE01A758BF4FFE01E857F5
:101A0000FF4F80818C93FE01E758FF4F80818A95BC
:101A1000F1F7FE01E758FF4F8083DE01AF56BF4F5D
:101A2000FE01EE56FF4F80819AE0692F0E948714D5
:101A30008C93EBE3F0E082E08083A5E3B0E0E5E3A4
:101A4000F0E08081982F907FFE01EF56FF4F80815C
:101A50008F70892B8C93FE01EB58FF4F80E090E054
:101A6000A0E2B1E480839183A283B3838E010F58F7
:101A70001F4FFE01EB58FF4F60817181828193817E
:101A80002BEA3AEA4AEA5EE30E941F02DC01CB013C
:101A9000F80180839183A283B383FE01EF58FF4F47
:101AA000608171818281938120E030E040E85FE3D2
:101AB0000E942504882334F4FE01E059FF4F81E0A1
:101AC0008083E0C0FE01EF58FF4F60817181828109
:101AD000938120E030E04FE753E40E94C5031816DD
:101AE0000CF0C0C0FE01EB58FF4F60817181828114
:101AF000938120E030E04AE754E40E941903DC01BE
:101B0000CB01FE01E459FF4F80839183A283B3830D
:101B10008E0108591F4FFE01E459FF4F608171810A
:101B20008281938120E030E04AE753E40E941F0263
:101B3000DC01CB01F80180839183A283B383FE0192
:101B4000E859FF4F608171818281938120E030E00C
:101B500040E85FE30E942504882344F4FE01EA592B
:101B6000FF4F81E090E09183808364C0FE01E859DB
:101B7000FF4F608171818281938120E03FEF4FE7C9
:101B800057E40E94C50318160CF043C0FE01E45947
:101B9000FF4F608171818281938120E030E040E2DB
:101BA00051E40E941F02DC01CB018E010A591F4F34
:101BB000BC01CD010E944900DC01CB01F8019183F9
:101BC00080831FC0FE01EC59FF4F89E190E09183B3
:101BD0008083FE01EC59FF4F808191810197F1F7DD
:101BE000FE01EC59FF4F91838083DE01AA59BF4F5C
:101BF000FE01EA59FF4F80819181019711969C93D4
:101C00008E93FE01EA59FF4F808191810097D1F6B2
:101C10004BC08E010A591F4FFE01E859FF4F6081EA
:101C20007181828193810E944900DC01CB01F8011E
:101C300091838083DE01AE59BF4FFE01EA59FF4F09
:101C40008081918111969C938E93FE01EE59FF4FF6
:101C5000808191810197F1F7FE01EE59FF4F918349
:101C6000808322C08E0100591F4FFE01EF58FF4FA5
:101C700060817181828193810E944900DC01CB01E6
:101C8000F8018083DE01AF59BF4FFE01E059FF4FDD
:101C900080818C93FE01EF59FF4F80818A95F1F787
:101CA000FE01EF59FF4F8083DE01AF56BF4FFE01AB
:101CB000ED56FF4F80819AE0692F0E948714892F8B
:101CC0008C93EBE3F0E084E08083A5E3B0E0E5E310
:101CD000F0E08081982F907FFE01EF56FF4F8081CA
:101CE0008F70892B8C93FE01E35AFF4F80E090E0C8
:101CF000A0E2B1E480839183A283B3838E01075A6B
:101D00001F4FFE01E35AFF4F6081718182819381F1
:101D10002BEA3AEA4AEA5EE30E941F02DC01CB01A9
:101D2000F80180839183A283B383FE01E75AFF4FBA
:101D3000608171818281938120E030E040E85FE33F
:101D40000E942504882334F4FE01E85AFF4F81E005
:101D50008083E0C0FE01E75AFF4F6081718182817C
:101D6000938120E030E04FE753E40E94C50318164A
:101D70000CF0C0C0FE01E35AFF4F60817181828187
:101D8000938120E030E04AE754E40E941903DC012B
:101D9000CB01FE01EC5AFF4F80839183A283B38372
:101DA0008E01005B1F4FFE01EC5AFF4F6081718175
:101DB0008281938120E030E04AE753E40E941F02D1
:101DC000DC01CB01F80180839183A283B383FE0100
:101DD000E05BFF4F608171818281938120E030E080
:101DE00040E85FE30E942504882344F4FE01E25B9F
:101DF000FF4F81E090E09183808364C0FE01E05B4F
:101E0000FF4F608171818281938120E03FEF4FE736
:101E100057E40E94C50318160CF043C0FE01EC5AAB
:101E2000FF4F608171818281938120E030E040E248
:101E300051E40E941F02DC01CB018E01025B1F4FA7
:101E4000BC01CD010E944900DC01CB01F801918366
:101E500080831FC0FE01E45BFF4F89E190E0918326
:101E60008083FE01E45BFF4F808191810197F1F750
:101E7000FE01E45BFF4F91838083DE01A25BBF4FD5
:101E8000FE01E25BFF4F80819181019711969C9347
:101E90008E93FE01E25BFF4F808191810097D1F626
:101EA0004BC08E01025B1F4FFE01E05BFF4F608164
:101EB0007181828193810E944900DC01CB01F8018C
:101EC00091838083DE01A65BBF4FFE01E25BFF4F83
:101ED0008081918111969C938E93FE01E65BFF4F6A
:101EE000808191810197F1F7FE01E65BFF4F9183BD
:101EF000808322C08E01085A1F4FFE01E75AFF4F10
:101F000060817181828193810E944900DC01CB0153
:101F1000F8018083DE01A75BBF4FFE01E85AFF4F47
:101F200080818C93FE01E75BFF4F80818A95F1F7FA
:101F3000FE01E75BFF4F8083DE01AF56BF4FFE011E
:101F4000ED56FF4F80819AE0692F0E9487148C9391
:101F5000EBE3F0E088E08083A5E3B0E0E5E3F0E0C8
:101F60008081982F907FFE01EF56FF4F80818F7008
:101F7000892B8C93FE01EB5BFF4F80E090E0A0E2A9
:101F8000B1E480839183A283B3838E010F5B1F4FE3
:101F9000FE01EB5BFF4F60817181828193812BEAAF
:101FA0003AEA4AEA5EE30E941F02DC01CB01F80133
:101FB00080839183A283B383FE01EF5BFF4F608137
:101FC00071818281938120E030E040E85FE30E94EC
:101FD0002504882334F481E0FE01E05CFF4F808318
:101FE0009DC0FE01EF5BFF4F608171818281938113
:101FF00020E030E04FE753E40E94C50318160CF0D0
:102000007EC0FE01EB5BFF4F608171818281938115
:1020100020E030E04AE754E40E941903DC01CB01E0
:102020008CAF9DAFAEAFBFAF6CAD7DAD8EAD9FAD94
:1020300020E030E04AE753E40E941F02DC01CB01BC
:1020400088AF99AFAAAFBBAF68AD79AD8AAD9BAD94
:1020500020E030E040E85FE30E94250488232CF470
:1020600081E090E09FAB8EAB3FC068AD79AD8AADAB
:102070009BAD20E03FEF4FE757E40E94C5031816E1
:102080004CF56CAD7DAD8EAD9FAD20E030E040E213
:1020900051E40E941F02DC01CB01BC01CD010E9472
:1020A0004900DC01CB019FAB8EAB0FC089E190E012
:1020B0009DAB8CAB8CA99DA90197F1F79DAB8CAB27
:1020C0008EA99FA901979FAB8EAB8EA99FA9009760
:1020D00069F72DC068AD79AD8AAD9BAD0E9449000E
:1020E000DC01CB019FAB8EAB8EA99FA99BAB8AABCA
:1020F0008AA99BA90197F1F79BAB8AAB18C0FE0197
:10210000EF5BFF4F60817181828193810E94490062
:10211000DC01CB01FE01E05CFF4F8083FE01E05C4F
:10212000FF4F808189AB89A98A95F1F789ABDE01E0
:10213000AF56BF4FFE01EC56FF4F80819AE0692FEA
:102140000E948714892F8C93EBE3F0E080E1808379
:10215000A5E3B0E0E5E3F0E08081982F907FFE01F9
:10216000EF56FF4F80818F70892B8C9380E090E039
:10217000A0E2B1E48DA79EA7AFA7B8AB6DA57EA5E1
:102180008FA598A92BEA3AEA4AEA5EE30E941F0269
:10219000DC01CB0189A79AA7ABA7BCA769A57AA543
:1021A0008BA59CA520E030E040E85FE30E94250479
:1021B00088231CF481E088A791C069A57AA58BA526
:1021C0009CA520E030E04FE753E40E94C5031816B9
:1021D0000CF07BC06DA57EA58FA598A920E030E00E
:1021E0004AE754E40E941903DC01CB018CA39DA3B0
:1021F000AEA3BFA36CA17DA18EA19FA120E030E082
:102200004AE753E40E941F02DC01CB0188A399A393
:10221000AAA3BBA368A179A18AA19BA120E030E079
:1022200040E85FE30E94250488232CF481E090E0DD
:102230009F8F8E8F3FC068A179A18AA19BA120E0CA
:102240003FEF4FE757E40E94C50318164CF56CA109
:102250007DA18EA19FA120E030E040E251E40E94E8
:102260001F02DC01CB01BC01CD010E944900DC0151
:10227000CB019F8F8E8F0FC089E190E09D8F8C8F57
:102280008C8D9D8D0197F1F79D8F8C8F8E8D9F8DFD
:1022900001979F8F8E8F8E8D9F8D009769F724C039
:1022A00068A179A18AA19BA10E944900DC01CB0110
:1022B0009F8F8E8F8E8D9F8D9B8F8A8F8A8D9B8D0A
:1022C0000197F1F79B8F8A8F0FC069A57AA58BA51F
:1022D0009CA50E944900DC01CB0188A788A5898FB5
:1022E000898D8A95F1F7898FDE01AF56BF4FFE01C8
:1022F000EC56FF4F80819AE0692F0E9487148C93DF
:10230000EBE3F0E080E28083A5E3B0E0E5E3F0E01A
:102310008081982F907FFE01EF56FF4F80818F7054
:10232000892B8C9380E090E0A0E2B1E48D8B9E8BB2
:10233000AF8BB88F6D897E898F89988D2BEA3AEAA9
:102340004AEA5EE30E941F02DC01CB01898B9A8B73
:10235000AB8BBC8B69897A898B899C8920E030E0C2
:1023600040E85FE30E94250488231CF481E0888B09
:1023700091C069897A898B899C8920E030E04FE798
:1023800053E40E94C50318160CF07BC06D897E894A
:102390008F89988D20E030E04AE754E40E941903C9
:1023A000DC01CB018C879D87AE87BF876C857D85DF
:1023B0008E859F8520E030E04AE753E40E941F02AB
:1023C000DC01CB0188879987AA87BB8768857985D7
:1023D0008A859B8520E030E040E85FE30E94250489
:1023E00088232CF481E090E09F838E833FC0688532
:1023F00079858A859B8520E03FEF4FE757E40E946F
:10240000C50318164CF56C857D858E859F8520E06B
:1024100030E040E251E40E941F02DC01CB01BC012C
:10242000CD010E944900DC01CB019F838E830FC048
:1024300089E190E09D838C838C819D810197F1F7E8
:102440009D838C838E819F8101979F838E838E8154
:102450009F81009769F724C0688579858A859B8567
:102460000E944900DC01CB019F838E838E819F8176
:102470009B838A838A819B810197F1F79B838A835F
:102480000FC069897A898B899C890E944900DC0187
:10249000CB01888B8889898389818A95F1F7898323
:1024A000CC56DF4F0FB6F894DEBF0FBECDBFCF9135
:1024B000DF911F910F9108951F920F920FB60F9207
:1024C00011242F933F934F935F936F937F938F9339
:1024D0009F93AF93BF93EF93FF93DF93CF93CDB7CA
:1024E000DEB7E0917C00F0917D000995CF91DF91FE
:1024F000FF91EF91BF91AF919F918F917F916F91DC
:102500005F914F913F912F910F900FBE0F901F90B1
:1025100018951F920F920FB60F9211242F933F938D
:102520004F935F936F937F938F939F93AF93BF93DB
:10253000EF93FF93DF93CF93CDB7DEB7E0917E00AB
:10254000F0917F000995CF91DF91FF91EF91BF91BD
:10255000AF919F918F917F916F915F914F913F913B
:102560002F910F900FBE0F901F9018951F920F92F2
:102570000FB60F9211242F933F934F935F936F9356
:102580007F938F939F93AF93BF93EF93FF93DF93CB
:10259000CF93CDB7DEB7E0918000F091810009952F
:1025A000CF91DF91FF91EF91BF91AF919F918F916B
:1025B0007F916F915F914F913F912F910F900FBE3F
:1025C0000F901F9018951F920F920FB60F92112423
:1025D0002F933F934F935F936F937F938F939F932B
:1025E000AF93BF93EF93FF93DF93CF93CDB7DEB756
:1025F000E0918200F09183000995CF91DF91FF91E6
:10260000EF91BF91AF919F918F917F916F915F916A
:102610004F913F912F910F900FBE0F901F901895E3
:10262000DF93CF9300D0CDB7DEB789836A83ECE424
:10263000F0E011821082AFE4B0E0EFE4F0E08081DE
:1026400088608C93AEE4B0E0EEE4F0E08081982FF7
:10265000987F8981892B8C938A81882341F4A9E50D
:10266000B0E0E9E5F0E080818B7F8C9311C08A8136
:10267000813071F4A9E5B0E0E9E5F0E080818460A3
:102680008C93AFE5B0E0EFE5F0E0808180688C935B
:102690000F900F90CF91DF910895DF93CF9300D0EB
:1026A00000D00F92CDB7DEB79A8389836B834C83BA
:1026B0002D83ECE4F0E011821082EAE4F0E08981FD
:1026C0009A8191838083AFE4B0E0EFE4F0E0808111
:1026D00088608C93AEE4B0E0EEE4F0E08081886046
:1026E0008C93AEE4B0E0EEE4F0E08081982F987F28
:1026F0008C81892B8C93AFE4B0E0E3E5F0E080813E
:10270000282F2F738B81882F90E000249695879532
:102710000794969587950794982F802D822B8C93FC
:102720008D81882341F4A9E5B0E0E9E5F0E08081FE
:102730008F7E8C9311C08D81813071F4A9E5B0E05A
:10274000E9E5F0E0808180618C93AFE5B0E0EFE5F2
:10275000F0E0808180688C930F900F900F900F9025
:102760000F90CF91DF910895DF93CF9300D000D0E9
:10277000CDB7DEB789836A834B832C83ECE4F0E02A
:1027800011821082EAE4F0E08981882F90E0918341
:102790008083AFE4B0E0EFE4F0E0808188648C9364
:1027A000AEE4B0E0EEE4F0E0808188618C93AEE4CA
:1027B000B0E0EEE4F0E08081982F987F8B81892B48
:1027C0008C93AFE4B0E0EEE4F0E08081282F2F732B
:1027D0008A81882F90E00024969587950794969596
:1027E00087950794982F802D822B8C938C8188233A
:1027F00041F4A9E5B0E0E9E5F0E080818F7E8C93BB
:1028000011C08C81813071F4A9E5B0E0E9E5F0E018
:10281000808180618C93AFE5B0E0EFE5F0E08081EE
:1028200080688C930F900F900F900F90CF91DF9155
:102830000895DF93CF9300D00F92CDB7DEB7898391
:102840006A834B83ECE4F0E011821082EFE4F0E065
:102850008CE08083AEE4B0E0EEE4F0E08081877E3F
:102860008C938B81882341F4AEE4B0E0EEE4F0E099
:1028700080818F7B8C9307C0AEE4B0E0EEE4F0E0A3
:10288000808180648C93AEE4B0E0EEE4F0E080817F
:10289000982F987F8981892B8C938A81813079F454
:1028A000A9E5B0E0E9E5F0E0808180628C93AFE5D6
:1028B000B0E0EFE5F0E0808180688C9307C0A9E587
:1028C000B0E0E9E5F0E080818F7D8C930F900F9070
:1028D0000F90CF91DF910895DF93CF9300D00F92A7
:1028E000CDB7DEB79A8389836B838B81882F90E085
:1028F00029813A81880F991FFC01E458FF4F3183E9
:1029000020830F900F900F90CF91DF910895991B26
:1029100079E004C0991F961708F0961B881F7A95D6
:10292000C9F7809508952F923F924F925F926F92D0
:102930007F928F929F92AF92BF92CF92DF92EF924F
:10294000FF920F931F93CF93DF93CDB7DEB7CA1BD0
:10295000DB0B0FB6F894DEBF0FBECDBF09942A88FB
:10296000398848885F846E847D848C849B84AA84A3
:10297000B984C884DF80EE80FD800C811B81AA8130
:10298000B981CE0FD11D0FB6F894DEBF0FBECDBFFB
:08299000ED010895F894FFCF5A
:08299800000000000000000037
:00000001FF
